:020000040800F2
:10000000901E00200D02000881170008F30200086E
:100010007D17000829070008CD1A0008000000001D
:100020000000000000000000000000001F020008A7
:100030002D070008000000007B020008E5170008FB
:1000400027020008270200082702000827020008EC
:1000500027020008270200082F0700087D07000874
:100060008F070008A1070008B3070008270200084F
:1000700027020008270200082702000827020008BC
:1000800027020008270200082702000827020008AC
:10009000270200082702000827020008C5070008F9
:1000A000270200082702000827020008270200088C
:1000B000270200082702000827020008270200087C
:1000C000270200082702000827020008270200086C
:1000D00027020008B51A00082702000827020008B6
:1000E000410700082702000827020008270200082D
:1000F000270200082702000827020008270200083C
:10010000270200082702000827020008270200082B
:10011000270200082702000827020008270200081B
:10012000270200082702000827020008270200080B
:1001300000F002F800F05AF80AA090E8000C82449F
:100140008344AAF10107DA4501D100F04FF8AFF27C
:10015000090EBAE80F0013F0010F18BFFB1A43F0A5
:1001600001031847E4AA000004AB00000A444FF062
:10017000000C10F8013B13F0070408BF10F8014B06
:100180001D1108BF10F8015B641E05D010F8016B4B
:10019000641E01F8016BF9D113F0080F1EBF10F8AF
:1001A000014BAD1C0C1B09D16D1E58BF01F801CBD2
:1001B000FAD505E014F8016B01F8016B6D1EF9D555
:1001C0009142D6D37047000000230024002500266A
:1001D000103A28BF78C1FBD8520728BF30C148BFAA
:1001E0000B6070471FB51FBD10B510BD00F060FA61
:1001F0001146FFF7F7FF00F090FA00F07EFA03B423
:10020000FFF7F2FF03BC00F081FA000009488047C5
:1002100009480047FEE7FEE7FEE7FEE7FEE7FEE7E8
:10022000FEE7FEE7FEE7FEE704480549054A064B00
:100230007047000095180008310100089018002050
:10024000901E0020901A0020901A0020EFF31080DA
:1002500072B6704780F310887047334A1368012BD9
:1002600004D04FF001031360304A1060304A11602F
:1002700030484FF0805101607047EFF3108272B642
:100280002948016891B14FF00001016027480168D9
:1002900029B1EFF3098121E9F00F006801602449D9
:1002A00009680968B1E8F00F81F3098882F31088C2
:1002B0004EF0040E70471E4908601C494FF00000C4
:1002C000086019494FF0010008601B484FF47F0196
:1002D000D0F8002041EA0201016016484FF0805139
:1002E000016016480068006880F3088861B662B64D
:1002F00070471EF0040F0CBFEFF30880EFF3098086
:1003000020E9F00F40F804ED1EF0040F0CBF80F35D
:10031000088880F3098800B504F07AFF5DF804EBE3
:100320004EF0040E70470000540200204C020020E2
:100330005002002004ED00E020ED00E008ED00E0B8
:1003400040EA010310B59B070FD1042A0DD310C852
:1003500008C9121F9C42F8D020BA19BA884201D9A4
:10036000012010BD4FF0FF3010BD1AB1D30703D0EC
:10037000521C07E0002010BD10F8013B11F8014BA2
:100380001B1B07D110F8013B11F8014B1B1B01D1BE
:10039000921EF1D1184610BD40EA0103024630B565
:1003A0009B0710D14FF0013400E008C208C91D1BA3
:1003B0009D4315EAC41FF8D013F0FF0102F8011B9A
:1003C0000DD01B0AF8E711F8013B002B02F8013BA6
:1003D00005D011F8013B002B02F8013BF3D130BDF1
:1003E00010B5431C02E010F8011B71B18107FAD16E
:1003F0004FF0013202C88C1A8C4314EAC211F9D0B2
:10040000C01A0A0603D0C01E10BDC01A10BD0A04CF
:1004100001D0801E10BD0902FCD0401E10BD40EA74
:10042000010370B59B072ED14FF00136042A2AD361
:1004300008C810C99D1B9D43121F15EAC61517D089
:10044000D8B2E1B2401A50EA056110D198B2A1B217
:10045000401A50EA05410AD123F07F4024F07F4141
:10046000401A50EA052102D1180EA0EB146070BDAD
:10047000A342DBD018BA21BA884201D9012070BD4D
:100480004FF0FF3070BD0AB9002070BD10F8013B7D
:1004900011F8014B63B1A3420AD1521E08D010F8E3
:1004A000013B11F8014B1BB1A34201D1521EEDD10A
:1004B000181B70BD421E12F8013F002BFBD111F832
:1004C000013B002B02F8013BF9D17047032A40F2AF
:1004D000308010F0030C00F0158011F8013BBCF1E6
:1004E000020F624498BF11F801CB00F8013B38BFFE
:1004F00011F8013BA2F1040298BF00F801CB38BF0C
:1005000000F8013B11F0030300F02580083AC0F029
:10051000088051F8043B083A51F804CBA0E80810D1
:10052000F5E7121D5CBF51F8043B40F8043BAFF304
:100530000080D20724BF11F8013B11F801CB48BF5E
:1005400011F8012B24BF00F8013B00F801CB48BF94
:1005500000F8012B704710B5203AC0F00B80B1E8CD
:100560001850203AA0E81850B1E81850A0E81850E8
:10057000BFF4F5AF5FEA027C24BFB1E81850A0E8F1
:10058000185044BF18C918C0BDE810405FEA827C0B
:1005900024BF51F8043B40F8043B08BF7047D20722
:1005A00028BF31F8023B48BF11F8012B28BF20F8C3
:1005B000023B48BF00F8012B70474FF000020429AE
:1005C000C0F0128010F0030C00F01B80CCF1040C82
:1005D000BCF1020F18BF00F8012BA8BF20F8022BB6
:1005E000A1EB0C0100F00DB85FEAC17C24BF00F85C
:1005F000012B00F8012B48BF00F8012B70474FF08A
:10060000000200B5134694469646203922BFA0E862
:100610000C50A0E80C50B1F12001BFF4F7AF09076E
:1006200028BFA0E80C5048BF0CC05DF804EB89005F
:1006300028BF40F8042B08BF704748BF20F8022BA2
:1006400011F0804F18BF00F8012B704710B5044619
:1006500010F0030F08BF11F0030F40F015804FF0AA
:10066000013E121FC0F20E8051F8043BA3EB0E0CAA
:100670002CEA030C1CEACE1C08BF40F8043BF0D067
:10068000A1F1040102F10402521E08DB11F8013B42
:10069000002B00F8013BF7D11146FFF78EFF2046F3
:1006A00010BD7047704770470048704730180020F1
:1006B0007546FFF7F9FFAE4605006946534620F040
:1006C0000700854618B020B5FFF7AEFDBDE8204015
:1006D0004FF000064FF000074FF000084FF0000BFE
:1006E00021F00701AC46ACE8C009ACE8C009ACE8B1
:1006F000C009ACE8C0098D46704710B50446AFF399
:1007000000802046BDE81040FFF779BD0149182060
:10071000ABBEFEE726000200704710B5FFF796FD5E
:1007200008F0DCF8002010BD00BFFEE7704710B5F0
:1007300004F0FEFF012000F0B1F805F01BF810BD39
:1007400010B504F0F5FF4FF4806000F0A7F84FF407
:10075000006000F0A3F84FF4805000F09FF84FF4D1
:10076000005000F09BF84FF4804000F097F84FF4F1
:10077000004000F093F804F0FDFF10BD10B504F048
:10078000D7FF022000F08AF804F0F4FF10BD10B586
:1007900004F0CEFF042000F081F804F0EBFF10BD60
:1007A00010B504F0C5FF082000F078F804F0E2FF6F
:1007B00010BD10B504F0BCFF102000F06FF804F07D
:1007C000D9FF10BD10B504F0B3FF202000F066F88B
:1007D000402000F063F8802000F060F84FF4807053
:1007E00000F05CF84FF4007000F058F804F0C2FF1D
:1007F00010BD000008B500BF0648806940F0040045
:10080000044988610846806900F00400009000BF38
:1008100000BF08BD0010024008B500BF064880694F
:1008200040F00800044988610846806900F008002B
:10083000009000BF00BF08BD0010024008B500BF17
:100840000648806940F010000449886108468069C4
:1008500000F01000009000BF00BF08BD0010024073
:1008600070B50546284602F0BCFA044604EB440085
:10087000094901EB8000406858B104EB44020B4683
:1008800003EB8202906804EB440203EB820251689E
:10089000884700BF70BD00004800002010B5044626
:1008A00004480068204020B1024804602046FFF759
:1008B000D7FF10BD140401402DE9F847024600247B
:1008C000002000258446002700237BE14FF001082B
:1008D00008FA03F4D1F8008008EA0400A0427DD1B0
:1008E000DFF8ECA2D1F80480A8EB0A09D0453AD091
:1008F00014DCB8F1030F50D009DCB8F1000F31D08F
:10090000B8F1010F1CD0B8F1020F49D120E0B8F1C5
:10091000110F18D0B8F1120F42D11EE0B9F5881F9F
:1009200025D006DCB9F5803F20D0B9F5801F37D13E
:100930001AE0B9F5001F18D0B9F5041F30D117E03F
:10094000D1F80CC02DE0D1F80C8008F1040C28E09F
:10095000D1F80C8008F1080C23E0D1F80C8008F1E4
:100960000C0C1EE000BF00BF00BF00BF00BF00BFF7
:10097000D1F80880B8F1000F02D14FF0040C0BE061
:10098000D1F80880B8F1010F03D14FF0080C1461C1
:1009900002E04FF0080C546103E04FF0000C00E05F
:1009A00000BF00BFFF2801D8904601E002F1040813
:1009B0004646FF2802D84FEA830803E0A3F108085F
:1009C0004FEA88084746D6F800804FF00F0909FA29
:1009D00007F928EA09080CFA07F900E07AE048EA82
:1009E0000908C6F80080D1F8048008F08058B8F1F2
:1009F000805F6FD100BFDFF8DC81D8F8188048F045
:100A00000108DFF8D091C9F81880C846D8F81880D6
:100A100008F00108CDF8008000BF00BF4FEAB938E8
:100A20004FEA930958F829504FEA83784FEA18792A
:100A30004FF00F0808FA09F825EA0805DFF8988151
:100A4000424502D14FF0000824E0DFF89081424592
:100A500002D14FF001081DE0DFF88481424502D148
:100A60004FF0020816E0DFF87C81424502D14FF0DA
:100A700003080FE0DFF87081424502D14FF004080F
:100A800008E0DFF86881424502D14FF0050801E037
:100A90004FF006084FEA83794FEA197908FA09F806
:100AA00048EA0505DFF848814FEA930948F82950DC
:100AB000D1F8048008F48038B8F5803F0BD1DFF816
:100AC0003481D8F8008048EA0008DFF82891C9F896
:100AD00000800AE075E0DFF81C81D8F8008028EA81
:100AE0000008DFF81091C9F80080D1F8048008F4FC
:100AF0000038B8F5003F0ED1DFF8F88008F104089F
:100B0000D8F8008048EA0008DFF8E89009F1040905
:100B1000C9F800800DE0DFF8DC8008F10408D8F89F
:100B2000008028EA0008DFF8CC9009F10409C9F830
:100B30000080D1F8048008F48018B8F5801F0ED129
:100B4000DFF8B08008F10808D8F8008048EA00080B
:100B5000DFF8A09009F10809C9F800800DE0DFF87E
:100B6000948008F10808D8F8008028EA0008DFF827
:100B7000849009F10809C9F80080D1F8048008F4CC
:100B80000018B8F5001F0ED1DFF8688008F10C08D6
:100B9000D8F8008048EA0008DFF8589009F10C09FD
:100BA000C9F800800DE0DFF84C8008F10C08D8F897
:100BB000008028EA0008DFF83C9009F10C09C9F828
:100BC00000805B1C102BFFF481AEBDE8F8870000AD
:100BD000000011100010024000080140000C01400C
:100BE000001001400014014000180140001C0140A9
:100BF0000800014000040140024693680B400BB11D
:100C0000012000E0002070470AB1016101E00B04FF
:100C10000361704701480068704700000801002028
:100C2000034800680349097808440149086070478F
:100C3000080100201001002010B50848006840F0AD
:100C4000100006490860032000F0D0F80F2000F0E3
:100C500007F800F02BF8002010BD00000020024033
:100C600070B504460E4800784FF47A71B1FBF0F08D
:100C70000C490968B1FBF0F5284600F041FC08B1C9
:100C8000012070BD102C07D200222146501E00F01A
:100C90006EF80548046001E00120F2E70020F0E76B
:100CA00010010020140100200C01002008B50320D1
:100CB00000F09CF800BF1E48806940F001001C490C
:100CC00088610846806900F00100009000BF00BF05
:100CD000002211466FF00B0000F049F80022114687
:100CE0006FF00A0000F043F8002211466FF009008F
:100CF00000F03DF800221146501F00F038F80022A5
:100D00001146101F00F033F800220F21901E00F052
:100D10002EF800220F21501E00F029F800BF0549CF
:100D2000486820F0E06040F00070486000BF08BDF7
:100D3000001002400000014000BF00F01F0201212E
:100D40009140034A430942F8231000BF7047000056
:100D500080E100E000BF00F01F0201219140420944
:100D6000920002F1E022C2F8001100BF70472DE9A5
:100D7000F05F80460D461646002700F003FD07464B
:100D800039462A46334601F00700C0F1070ABAF196
:100D9000040F02D94FF0040A01E0C0F1070AD1465E
:100DA00000F1040ABAF1070F02D24FF0000A01E085
:100DB000A0F1030AD4464FF0010A0AFA09FAAAF18F
:100DC000010A0AEA020A0AFA0CFA4FF0010B0BFABE
:100DD0000CFBABF1010B0BEA030B4AEA0B042146B7
:100DE000404600F0D7FCBDE8F09F000000BF00F0D7
:100DF0000702064B19684FF6FF031940044B0B43DB
:100E000043EA0221014B196000BF70470CED00E07E
:100E10000000FA0570B504460D46002662480068D9
:100E200000F00700A8420ED25F48006820F00700DB
:100E300028435D4908600846006800F00700A842A2
:100E400001D0012070BD207800F00200022807D1F7
:100E50005648406820F0F000A168084353494860B4
:100E6000207800F0010000285DD06068012806D1DC
:100E70004E48006800F4003090B90120E2E7606855
:100E8000022806D14948006800F0007040B90120EE
:100E9000D8E74648006800F0020008B90120D1E711
:100EA0004248406820F00300616808433F494860B9
:100EB000FFF7B0FE06466068012810D108E0FFF792
:100EC000A9FE801B41F28831884201D90320B9E78D
:100ED0003648406800F00C000428F0D123E0606838
:100EE000022810D108E0FFF795FE801B41F28831FF
:100EF000884201D90320A5E72C48406800F00C0087
:100F00000828F0D10FE008E0FFF784FE801B41F2D3
:100F10008831884201D9032094E72448406800F0D2
:100F20000C000028F0D12048006800F00700A8421B
:100F30000ED91D48006820F0070028431A490860B0
:100F40000846006800F00700A84201D0012079E7B8
:100F5000207800F00400042807D11448406820F4E9
:100F6000E060E168084311494860207800F008001B
:100F7000082808D10D48406820F46050216940EAF3
:100F8000C1000A49486000F03DF808494968C1F3CA
:100F90000311074A515CC840064908600F20FFF75B
:100FA0005FFE00204EE700000020024000100240DB
:100FB00038980008140100200148006870470000BC
:100FC0001401002000B5FFF7F7FF04494968C1F399
:100FD0000221034A515CC84000BD000000100240DD
:100FE0004898000800B5FFF7E7FF04494968C1F3D6
:100FF000C221034A515CC84000BD000000100240FD
:1010000048980008F0B585B00FF26C0C9CE8E01031
:1010100001A8A0E8E0101CA52D6800950021002281
:10102000002300240020194D696801F00C05F5B17A
:10103000042D02D0082D19D101E0154819E001ADA9
:10104000C1F38346AC5D01F4803555B10F4D6D6839
:10105000C5F340451DF805200D4D6543B5FBF2F382
:1010600002E00C4D04FB05F3184602E000BF0848FF
:1010700000BF00BF05B0F0BD020304050607080964
:101080000A0B0C0D0E0F10100102000000100240A0
:1010900000127A0000093D00F8B5044600252078CA
:1010A00000F00100002878D0F848406800F00C00FB
:1010B00004280CD0F548406800F00C00082811D135
:1010C000F248406800F48030B0F5803F0AD1EF4824
:1010D000006800F4003000285FD0606800285CD110
:1010E0000120F8BD00BF6068B0F5803F06D1E74839
:1010F000006840F48030E549086028E0606858B92D
:10110000E248006820F48030E04908600846006842
:1011100020F4802008601AE06068B0F5A02F0BD1A1
:10112000DA48006840F48020D84908600846006822
:1011300040F4803008600AE0D448006820F4803031
:10114000D24908600846006820F48020086000BF8B
:10115000606888B1FFF75EFD054606E0FFF75AFDBF
:10116000401B642801D90320BBE7C848006800F48D
:1011700000300028F2D010E0FFF74CFD054606E0F5
:10118000FFF748FD401B642801D90320A9E7BF48A9
:10119000006800F400300028F2D1207800F002004E
:1011A000022857D1B948406800F00C0050B1B74848
:1011B000406800F00C00082818D1B448406800F4DA
:1011C000803098B9B148006800F0020020B1206971
:1011D000012801D0012084E7AC48006820F0F80025
:1011E000616940EAC100A949086033E02069E8B1BB
:1011F0000120A7490860FFF70DFD054606E0FFF74F
:1012000009FD401B022801D903206AE79F480068B6
:1012100000F002000028F2D09C48006820F0F8009E
:10122000616940EAC1009949086013E000209849CB
:101230000860FFF7EFFC054606E0FFF7EBFC401BFC
:10124000022801D903204CE79048006800F0020012
:101250000028F2D1207800F0080008282DD1A069DC
:10126000B8B101208B490860FFF7D4FC054606E0C1
:10127000FFF7D0FC401B022801D9032031E7834847
:10128000406A00F002000028F2D0012000F096FA37
:1012900013E000207F490860FFF7BCFC054606E02C
:1012A000FFF7B8FC401B022801D9032019E7774853
:1012B000406A00F002000028F2D1207800F004001B
:1012C000042873D100267148C06900F0805070B9BD
:1012D00000BF6E48C06940F080506C49C861084644
:1012E000C06900F08050009000BF00BF01266A482E
:1012F000006800F48070B0B96748006840F48070FE
:1013000065490860FFF786FC054606E0FFF782FCAA
:10131000401B642801D90320E3E65F48006800F41D
:1013200080700028F2D000BFE068012806D157483D
:10133000006A40F001005549086227E0E06858B9AA
:101340005248006A20F00100504908620846006ACD
:1013500020F00400086219E0E06805280BD14B4832
:10136000006A40F00400494908620846006A40F0FB
:10137000010008620AE04548006A20F00100434984
:1013800008620846006A20F00400086200BFE068B6
:10139000A0B1FFF73FFC054609E0FFF73BFC401B0F
:1013A00041F28831884202D903209AE622E0374888
:1013B000006A00F002000028EFD012E0FFF72AFCDC
:1013C000054608E0FFF726FC401B41F288318842C1
:1013D00001D9032085E62D48006A00F002000028AC
:1013E000F0D1012E05D12948C06920F0805027494D
:1013F000C86100BFE069C8B32448406800F00C0031
:10140000082860D0E069022848D1002020490866F9
:10141000FFF700FC054606E0FFF7FCFB401B022837
:1014200001D903205DE61948006800F0007000282B
:10143000F2D1206AB0F5803F07D11448406820F40B
:101440000030A168084311494860D4E90801084305
:101450000E49496821F4741108430C494860012081
:101460000B490866FFF7D6FB054607E02DE0FFF7BE
:10147000D1FB401B022801D9032032E60348006853
:1014800000F000700028F2D01FE0000000100240C1
:1014900000004242800442420070004000200C499B
:1014A0000866FFF7B7FB054606E0FFF7B3FB401BF6
:1014B000022801D9032014E60648006800F00070F5
:1014C0000028F2D101E001200BE6002009E600002F
:1014D0000000424200100240042808D14FF0E021F1
:1014E000096941F004014FF0E022116107E04FF07B
:1014F000E021096921F004014FF0E02211617047F9
:1015000070B504462546681EB0F1807F01D30120E6
:101510000FE0681E4FF0E02148610F214FF0FF30CF
:1015200000F038F900204FF0E021886107200861C1
:10153000002070BD10B504460CB9012010BDA06993
:1015400000B100E000BF94F8390028B9002084F809
:101550003800204600F028F8242084F8390020685C
:10156000C06820F400502168C860204600F0BEF931
:101570002068006920F49040216808612068406973
:1015800020F02A00216848612068C06840F40050BB
:101590002168C8600020E063202084F8390084F8C6
:1015A0003A000020CAE7000010B586B004465A4948
:1015B0002068884237D100BF5848806940F4804095
:1015C000564988610846806900F48040019000BF58
:1015D00000BF00BF0846806940F0040088610846EB
:1015E000806900F00400019000BF00BF4815029020
:1015F000022003900320059002A94948FFF75CF9F7
:101600004FF48060029000200390049002A94448A7
:10161000FFF752F9002205212520FFF7A8FB25201E
:10162000FFF798FB75E03F492068884236D100BF3C
:101630003A48C06940F400303849C8610846C0697A
:1016400000F40030019000BF00BF00BF0846806971
:1016500040F0040088610846806900F004000190B1
:1016600000BF00BF042002900220039003200590D9
:1016700002A92B48FFF720F90820029000200390D0
:10168000049002A92648FFF717F900220521262019
:10169000FFF76DFB2620FFF75DFB3AE0224920684B
:1016A000884236D100BF1D48C06940F480201B49E4
:1016B000C8610846C06900F48020019000BF00BFE7
:1016C00000BF0846806940F00800886108468069CC
:1016D00000F00800019000BF00BF08150290022032
:1016E00003900320059002A91048FFF7E5F84FF496
:1016F0000060029000200390049002A90B48FFF7BD
:10170000DBF8002205212720FFF731FB2720FFF718
:1017100021FB06B010BD000000380140001002405F
:10172000000801400044004000480040000C014017
:1017300070B504464FF4E13060600021A160E160C3
:1017400021610C2161610021A161E1612046FFF767
:10175000F1FE05462DB140F21712024902A002F037
:101760003FFD70BDBC940008726573756C74203DBC
:101770003D2048414C5F4F4B0000000000BFFEE79A
:101780007047000002480068C0F302207047000064
:101790000CED00E010B5002807DA0A07140E054A20
:1017A00000F00F031B1FD45403E00A07130E024A74
:1017B000135410BD18ED00E000E400E008B508493E
:1017C0000968C9084FF47A72B1FBF2F14143009104
:1017D00000BF00BF00994A1E00920029F9D108BD40
:1017E0001401002010B503F0A3FFFFF719FA06F06B
:1017F00043FC03F0BFFF10BD30B58FB000240120C3
:101800000590000406900020079001200990022016
:101810000C90C1030D914FF4E0110E9105A8FFF754
:101820003BFC044624B14222154916A002F0D8FC24
:101830000F20009002200190002002904FF4806061
:1018400003900020049002216846FFF7E3FA044663
:1018500024B14C220A490BA002F0C2FCFFF7ACFBFA
:101860006421B0FBF1F52846FFF74AFE0420FFF79C
:1018700033FE00220F21501EFFF779FA0FB030BD62
:101880004A940008726574203D3D2048414C5F4FEA
:101890004B0000001148006840F001000F4908604B
:1018A000084640680E4908400C49486008460068F0
:1018B0000C490840094908600846006820F4802067
:1018C00008600846406820F4FE0048604FF41F009E
:1018D0008860C80304490860704700000010024097
:1018E0000000FFF8FFFFF6FE08ED00E02DE9F041F3
:1018F000044600252068006920F44050E168084350
:10190000216808612169A0680843616908430543AB
:101910002068C06841F20C61884328432168C86090
:101920002068406920F44070A1690843216848613B
:101930005F49206888425CD1FFF754FB00EBC0018F
:1019400001EB001061688900B0FBF1F6FFF74AFB7C
:1019500000EBC00101EB001061688900B0FBF1F001
:101960006421B0FBF1F000EBC00101EB0010A6EB2D
:101970008000322101EB00106421B0FBF1F000F097
:10198000F006FFF72FFB00EBC00101EB00106168D0
:101990008900B0FBF1F06421B0FBF1F006EB00161A
:1019A000FFF720FB00EBC00101EB0010616889002C
:1019B000B0FBF1F7FFF716FB00EBC00101EB0010E5
:1019C00061688900B0FBF1F06421B0FBF1F000EB3D
:1019D000C00101EB0010A7EB8000322101EB0010E9
:1019E0006421B0FBF1F000F00F0030442168886002
:1019F0005BE0FFF7E7FA00EBC00101EB0010616864
:101A00008900B0FBF1F6FFF7DDFA00EBC00101EB56
:101A1000001061688900B0FBF1F06421B0FBF1F0C7
:101A200000EBC00101EB0010A6EB8000322101EBBE
:101A300000106421B0FBF1F000F0F006FFF7C2FAED
:101A400000EBC00101EB001061688900B0FBF1F010
:101A50006421B0FBF1F006EB0016FFF7B3FA00EBE0
:101A6000C00101EB001061688900B0FBF1F7FFF7DE
:101A7000A9FA00EBC00101EB001061688900B0FB1E
:101A8000F1F06421B0FBF1F000EBC00101EB0010BC
:101A9000A7EB8000322101EB00106421B0FBF1F0D4
:101AA00000F00F00304421688860BDE8F08100003C
:101AB0000038014010B503F03BFE034807F026FC58
:101AC00003F058FE10BD0000D013002000BFFEE759
:101AD000014609B900207047C8B220B1C8B20E4A09
:101AE000105C401CF7E701F47F4028B10A48C1F3BD
:101AF0000722805C0930EEE701F47F0028B1064838
:101B0000C1F30742805C1130E5E7034800EB116048
:101B100000781930DFE700003A9B000803490868A5
:101B2000884201D0012070470020FCE720020020FD
:101B30002DE9F04196B005465022194902A8FEF75A
:101B40000AFD18A72946384602F0A4F980463A460D
:101B5000414616A003F08EFE404602F0BFF91DA0DC
:101B600003F088FE2E6814E0A6F10C04A17E207D0F
:101B7000132804DC207D02AA52F8200000E015980A
:101B800023460822CDE9000141461BA003F072FE66
:101B90003668AE42E8D1002016B0BDE8F081000002
:101BA00038A100086465766963650000252D2A2E3A
:101BB0007320202020202020202074797065202090
:101BC0002020202020202072656620636F756E74AF
:101BD0000A000000202D2D2D2D2D2D2D2D2D2D2DEC
:101BE0002D2D2D2D2D2D2D2D2D202D2D2D2D2D2D32
:101BF0002D2D2D2D0A000000252D2A2E2A7320259B
:101C00002D32307320252D38640A00002DE9FC4761
:101C100005461FA72946384602F03CF981463A4658
:101C200049461DA003F026FE484602F057F923A0BE
:101C300003F020FE2E6825E0A6F10C0404F1140048
:101C400003F09EFEA8B904F1140003F0A1FE804643
:101C5000E069234608224946CDE900081FA003F0A9
:101C600009FE04F1140006F0F1FE13A003F002FED9
:101C700007E0E06923460822494600901DA003F0D2
:101C8000F9FD3668AE42D7D10020BDE8FC870000E0
:101C90006576656E74000000252D2A2E73202020A5
:101CA0002020207365742020202073757370656E6A
:101CB00064207468726561640A00000020202D2D84
:101CC0002D2D2D2D2D2D2D2D202D2D2D2D2D2D2D51
:101CD0002D2D2D2D2D2D2D0A00000000252D2A2E15
:101CE0002A73202030782530387820253033643A24
:101CF00000000000252D2A2E2A7320203078253060
:101D0000387820300A0000002DE9FE43054624A75C
:101D10002946384602F0BEF881463A46494622A096
:101D200003F0A8FD484602F0D9F828A003F0A2FD70
:101D30002E682FE0A6F10C0404F1140003F020FE3D
:101D4000B8B904F1140003F023FE8046208C618CA6
:101D500023460822CDE901080091494622A003F05C
:101D600089FD04F1140006F071FE25A003F082FD48
:101D70000FE004F1140003F00BFE8046208C618C10
:101D800023460822CDE90108009149461DA003F031
:101D900071FD3668AE42CDD10020BDE8FE83000063
:101DA0006D61696C626F7800252D2A2E7320656E37
:101DB0007472792073697A652073757370656E64C7
:101DC000207468726561640A00000000202D2D2DCA
:101DD0002D20202D2D2D2D202D2D2D2D2D2D2D2D5A
:101DE0002D2D2D2D2D2D0A00252D2A2E2A7320254F
:101DF0003034642020253034642025643A0000000B
:101E00000A000000252D2A2E2A7320253034642054
:101E100020253034642025640A0000002DE9FE43AB
:101E2000054613A72946384602F034F880463A465C
:101E3000414611A003F01EFD404602F04FF81AA0E3
:101E400003F018FD2E680EE0A6F10C04D4E9070299
:101E5000A1692346CDE900120290082241461DA047
:101E600003F008FD3668AE42EED10020BDE8FE83E7
:101E70006D656D6865617000252D2A2E73202070B8
:101E80006F6F6C2073697A6520206D61782075739F
:101E900065642073697A6520617661696C61626C42
:101EA000652073697A650A00202D2D2D2D2D2D2D8D
:101EB0002D2D2D202D2D2D2D2D2D2D2D2D2D2D2D5F
:101EC0002D202D2D2D2D2D2D2D2D2D2D2D2D2D2D4F
:101ED0000A000000252D2A2E2A7320252D303130AE
:101EE0006420252D3031336420252D3035640A00DF
:101EF0002DE9FF41054621A72946384601F0CAFFD2
:101F000080463A4641461FA003F0B4FC404601F02B
:101F1000E5FF26A003F0AEFC2E6828E0A6F10C0435
:101F2000606BA8B1D4E90931E269606BCDE90023A7
:101F3000CDE9021023460822414625A003F09AFC71
:101F400004F12C0006F082FD20A003F093FC0DE0CC
:101F5000D4E90930E269616BCDE90023CDE90201E2
:101F600023460822414621A003F084FC3668AE4295
:101F7000D4D1002004B0BDE8F08100006D656D7023
:101F80006F6F6C00252D2A2E7320626C6F636B209F
:101F9000746F74616C20667265652073757370650B
:101FA0006E64207468726561640A0000202D2D2D16
:101FB0002D20202D2D2D2D20202D2D2D2D202D2D92
:101FC0002D2D2D2D2D2D2D2D2D2D2D2D0A000000EB
:101FD000252D2A2E2A7320253034642020253034E4
:101FE000642020253034642025643A00252D2A2ED3
:101FF0002A732025303464202025303464202025A5
:102000003034642025640A002DE9FC47054622A7E8
:102010002946384601F03EFF81463A46494621A00E
:1020200003F028FC484601F059FF25A003F022FCEC
:102030002E682BE0A6F10C0404F1140003F0A0FCC0
:10204000A8B904F1140003F0A3FC8046A08C234639
:1020500008224946CDE900081FA003F00BFC04F15B
:10206000140006F0F3FC21A003F004FC0DE004F1E1
:10207000140003F08DFC8046A08C234608224946BC
:10208000CDE900081AA003F0F5FB3668AE42D1D1C5
:102090000020BDE8FC8700006D736771756575658C
:1020A00000000000252D2A2E7320656E74727920A1
:1020B00073757370656E64207468726561640A007C
:1020C000202D2D2D2D20202D2D2D2D2D2D2D2D2D67
:1020D0002D2D2D2D2D0A0000252D2A2E2A73202589
:1020E000303464202025643A000000000A0000001B
:1020F000252D2A2E2A732025303464202025640AB9
:10210000000000002DE9FF47054616A7294638467E
:1021100001F0C0FE81463A46494614A003F0AAFBEE
:10212000484601F0DBFE1AA003F0A4FB2E6813E082
:10213000A6F10C0404F1140003F02AFC8046E07FB1
:102140000822216A2346CDE90208CDE9002149464B
:1021500017A003F08FFB3668AE42E9D1002004B02F
:10216000BDE8F0876D75746578000000252D2A2E76
:10217000732020206F776E65722020686F6C64205A
:1021800073757370656E64207468726561640A00AB
:10219000202D2D2D2D2D2D2D2D202D2D2D2D202D96
:1021A0002D2D2D2D2D2D2D2D2D2D2D2D2D0A0000DC
:1021B000252D2A2E2A7320252D382E2A73202530EE
:1021C00034642025640A00002DE9FC47054622A757
:1021D0002946384601F05EFE81463A46494621A02E
:1021E00003F048FB484601F079FE25A003F042FBCE
:1021F0002E682BE0A6F10C0404F1140003F0C0FBE0
:10220000A8B904F1140003F0C3FB8046A08B234659
:1022100008224946CDE900081FA003F02BFB04F17A
:10222000140006F013FC15A003F024FB0DE004F1EC
:10223000140003F0ADFB8046A08B234608224946DC
:10224000CDE9000818A003F015FB3668AE42D1D1E5
:102250000020BDE8FC87000073656D6170686F72D7
:1022600065000000252D2A2E73207620202073750E
:102270007370656E64207468726561640A000000A2
:10228000202D2D2D202D2D2D2D2D2D2D2D2D2D2D98
:102290002D2D2D0A00000000252D2A2E2A73202521
:1022A0003033642025643A00252D2A2E2A732025F8
:1022B0003033642025640A002DE9FC5F05460FF2E7
:1022C000BC092946484601F0E5FD83464A46594681
:1022D0002C4803F0CFFA584601F000FE2AA003F084
:1022E000C9FAD5F8008043E0A8F10C0494F8350051
:1022F000234608225946009033A003F0BBFA94F815
:10230000340000F00F06012E03D132A003F0B2FA20
:102310000FE0022E03D132A003F0ACFA09E01EB99F
:1023200032A003F0A7FA04E0042E02D132A003F099
:10233000A1FAA76A00E07F1C38782328FBD0D4E9F3
:102340000A10791A401A64214843E16AB0FBF1FA95
:10235000216BE06DCDE90001E369A06AC01AE36A70
:10236000C1181A46534627A003F084FAD8F8008013
:10237000A845B9D10020BDE8FC9F000074687265D3
:1023800061640000E4A30008202D2D2D20202D2DB8
:102390002D2D2D2D2D202D2D2D2D2D2D2D2D2D2D7A
:1023A000202D2D2D2D2D2D2D2D2D2D20202D2D2D84
:1023B0002D2D2D20202D2D2D2D2D2D2D2D2D2D2074
:1023C0002D2D2D0A00000000252D2A2E2A732025F0
:1023D00033642000207265616479202000000000D1
:1023E0002073757370656E640000000020696E696B
:1023F000742020200000000020636C6F7365202093
:1024000000000000203078253038782030782530E2
:1024100038782020202025303264252520202030C7
:10242000782530387820253033640A002DE9FC47C0
:1024300005461BA72946384601F02CFD80463A4642
:10244000414619A003F016FA404601F047FD20A0CE
:1024500003F010FA2E6817E0A6F10C04D4E9090184
:1024600023460822CDE90001414622A003F002FAEA
:10247000607A00F0010018B124A003F0FBF902E03B
:1024800025A003F0F7F93668AE42E5D105F0EEFD80
:102490008146494624A003F0EDF90020BDE8FC8701
:1024A00074696D6572000000252D2A2E732020703E
:1024B0006572696F64696320202074696D656F754A
:1024C0007420202020202020666C61670A00000014
:1024D000202D2D2D2D2D2D2D2D2D2D202D2D2D2D46
:1024E0002D2D2D2D2D2D202D2D2D2D2D2D2D2D2D29
:1024F0002D2D0A00252D2A2E2A73203078253038DC
:1025000078203078253038782000000061637469C5
:1025100076617465640A000064656163746976615C
:102520007465640A0000000063757272656E742041
:102530007469636B3A3078253038780A00000000FF
:102540002DE9F04389B005468946174600242DB988
:1025500040F227121C491DA001F042FE2FB94FF492
:10256000947219491AA001F03BFE00E0641C285D3A
:10257000202804D0285D092801D04C45F6D324B981
:102580004FF0FF3009B0BDE8F0832146284601F046
:1025900099FB064616B94FF0FF30F3E7202101A85A
:1025A000FEF72DF801AA4946284601F0FBFB8046BC
:1025B000B8F1000F02D14FF0FF30E3E701A9404628
:1025C000B04738600020DDE788A10008636D640033
:1025D00072657470000000002DE9F04105468846E0
:1025E00016462F4627B94522084909A001F0F8FDF3
:1025F00034461CB94FF0FF30BDE8F0816288218875
:10260000386C0368284698470020F5E7CEA00008FC
:1026100070696E20213D2052545F4E554C4C000095
:102620002DE9F0470546894616461F46A846B8F1EB
:10263000000F04D126220A490AA001F0D1FD344638
:102640000CB1042F02D00020BDE8F0872188D8F813
:10265000400082682846904760803846F4E70000D2
:10266000B9A0000870696E20213D2052545F4E557C
:102670004C4C00002DE9F0470546894616461F469A
:10268000A846B8F1000F04D135220A490AA001F08A
:10269000A7FD34460CB1042F02D00020BDE8F0871E
:1026A00062882188D8F84000436828469847384611
:1026B000F4E70000C3A0000870696E20213D20529D
:1026C000545F4E554C4C000070B5044624B9592255
:1026D000144915A001F084FDA06A0078232809D1CF
:1026E000A16AE069884205D9D4E90A010844E16990
:1026F00088420CD2214611A003F0BCF801F069F920
:10270000FDF7A4FD054600BF002DFDD108E0A06A3D
:102710002030E169814203D821460FA003F0AAF8D6
:1027200070BD0000609D00087468726561642021BE
:102730003D2052545F4E554C4C0000007468726549
:1027400061643A257320737461636B206F766572E0
:10275000666C6F770A0000007761726E696E673A87
:1027600020257320737461636B20697320636C6F21
:10277000736520746F20656E64206F6620737461CA
:10278000636B20616464726573732E0A000000003D
:102790002DE9FC5F04468B4616461F46DDE90C9A80
:1027A000DDE90E5804F114004060006000BF2662AD
:1027B0006762C4F82890C4F82CA02321D4E90A0247
:1027C00003F0BFFAD4E90A3C63441A1F1A4BD4E958
:1027D000080102F05DFFE061202D04DB9E22174915
:1027E00017A001F0FDFC3034A57165710020A060D8
:1027F000C4F82880C4F82C8020602071E065206631
:10280000303C00902346174A2146019004F16000B5
:1028100005F05EFD0020A0646064E06420656065F2
:1028200000BF1148006818B120460F490968884761
:1028300000BF0020BDE8FC9F99780008F69D0008C5
:102840007072696F72697479203C2052545F5448E9
:10285000524541445F5052494F524954595F4D418E
:1028600058000000357F0008380200202DE9F047AD
:1028700004460E4617469846DDF8209084F80990E5
:10288000607A20F001006072E66127620020A06299
:10289000C4F82480002506E004F1140101EBC50012
:1028A00003F025F86D1C012DF6DBBDE8F08710B5AF
:1028B0000246002001460EE002F1140303EBC100C2
:1028C000D0E900436360D0E90034236040600060D9
:1028D00000BF481C01460129EEDB10BD2DE9F04781
:1028E00004460F46904604B12FB94FF4E5724049B3
:1028F00040A001F075FCFDF7A9FC8246A06CC0F376
:102900008F2000282DD10026E56C2DB94FF4EA72F6
:10291000374943A001F064FC2868012813D0012046
:102920002860206C006928B940F2D912304941A0D2
:1029300001F056FC206C012342463946D0F810C005
:102940002046E04701E06FF006065046FDF782FCA6
:1029500016B94046BDE8F087304604F03BFD002044
:10296000F8E7E56C0026204602F056FA81462DB9BC
:1029700040F2E9121E4939A001F032FCC84501D2EB
:10298000464600E04E46E8888119A06CC0F38F20CF
:10299000814207D2EA88286881183246384603F017
:1029A00071F91CE0A06CC0F38F20EB88C21A286874
:1029B000C118384603F066F9EB8803EB060CA36CEC
:1029C000C3F38F23ACEB0302A36CC3F38F233B440D
:1029D000B5F806C0A3EB0C00296803F053F93146A3
:1029E000204602F01FFA5046FDF734FC3046B1E7AE
:1029F00024A000082873657269616C20213D205273
:102A0000545F4E554C4C2920262620286461746161
:102A100020213D2052545F4E554C4C2900000000AF
:102A200072785F646D6120213D2052545F4E554C99
:102A30004C00000073657269616C2D3E6F70732DE0
:102A40003E646D615F7472616E736D697420213DC7
:102A50002052545F4E554C4C0000000072785F6667
:102A600069666F20213D2052545F4E554C4C00004A
:102A70002DE9F047044688461646256D4FF0FF3392
:102A800032464146281D01F0ABFE0746CFB9FDF79F
:102A9000DDFB8146286801280DD0012028604846CA
:102AA000FDF7D8FB206C022332464146D0F810C017
:102AB0002046E04702E04846FDF7CCFB3046BDE843
:102AC000F087384604F086FC0020F8E770B505462C
:102AD000EC6C2CB940F25D120F4910A001F080FBA4
:102AE000A088E188884207D1A06808B9002070BD9D
:102AF000A86CC0F38F20FAE7A088E188884203DD44
:102B0000A088E188401AF2E7E088A188411AA86C01
:102B1000C0F38F20401AEAE7CD9F000872785F6605
:102B200069666F20213D2052545F4E554C4C000089
:102B30002DE9F04706460F4615462EB940F215120C
:102B40001E491FA001F04CFBA846F46C2CB940F2C2
:102B500019121A491FA001F043FB28E0FDF776FB8C
:102B60008246E088A188884205D1A06818B95046FD
:102B7000FDF770FB1DE0E188206810F80190E08807
:102B8000401CE080E188B06CC0F38F20814201DB03
:102B90000020E080A068012801D10020A0605046FC
:102BA000FDF758FB87F800907F1C6D1E00BF002DBD
:102BB000D4D100BFA8EB0500BDE8F087AF9F0008A7
:102BC00073657269616C20213D2052545F4E554CF3
:102BD0004C00000072785F6669666F20213D2052CC
:102BE000545F4E554C4C00002DE9F04105460E4611
:102BF00014462DB940F245121149124801F0F0FA7D
:102C0000A0462F6D2FB940F249120D490EA001F0D8
:102C1000E7FA0FE03178286C826828469047401C1C
:102C200028B94FF0FF31384601F0ACFB02E0761CCA
:102C3000641E00BF002CEDD1A8EB0400BDE8F081BC
:102C4000BE9F0008A02C0008747820213D2052541B
:102C50005F4E554C4C0000002DE9F04106460F46F2
:102C6000144626B9E2220D490DA001F0B9FAA0469A
:102C70000DE0306CC168304688470546681C00B9D5
:102C800007E03D707F1C641E0A2D00D101E0002C7E
:102C9000EFD100BFA8EB0400BDE8F0818F9F0008D2
:102CA00073657269616C20213D2052545F4E554C12
:102CB0004C0000002DE9F04104460E46154624B9AB
:102CC000F6220F490F4801F08BFA2F4612E03078B8
:102CD0000A2808D1207E00F0400020B1206C0D2190
:102CE0008268204690473178206C82682046904761
:102CF000761C6D1E002DEAD1781BBDE8F081000026
:102D00009F9F0008A02C00087047000070B5044683
:102D1000D4E91101084000B970BDFDF797FA0546E6
:102D200094F8340000F00F0002280ED1204604F081
:102D3000BFFF94F8340040F0100084F834002846B7
:102D4000FDF788FA03F03AFE2EE004F0FDFFA04202
:102D50000CD194F8340040F0100084F83400284678
:102D6000FDF778FA012004F0E4FD1DE094F834004A
:102D70000020B0B994F8340040F0100084F834001A
:102D8000E069E064E06CA0F12002002319460748E6
:102D900002F07EFCE0612846FDF75CFA03F00EFECF
:102DA00002E02846FDF756FA00BFB5E7B12D00084E
:102DB00070B5054604F0C8FF0446002004F0B9FDD4
:102DC000FDF744FAE06CE0610020E06494F8340020
:102DD00020F0100084F8340004F11C00FDF76BFAB9
:102DE00070BD0246002106E001208840904201D1DA
:102DF00008467047491C2029F6DB4FF0FF30F8E702
:102E000010B520A002F036FD2148017821A002F083
:102E100031FD1F48007800F0010010B123A002F03E
:102E200029FD1B48007800F0020010B122A002F03A
:102E300021FD1748007800F0040010B121A002F035
:102E400019FD1348007800F0080010B121A002F02D
:102E500011FD0F48007800F0100010B120A002F022
:102E600009FD0B48007800F0800030B108480F30B1
:102E700001681DA002F0FEFC02E01FA002F0FAFCB7
:102E800010BD0000627573206661756C743A0A00AB
:102E900029ED00E05343425F434653525F4246539D
:102EA000523A3078253032582000000049425553BC
:102EB00045525220000000005052454349534552AC
:102EC00052200000494D505245434953455252202B
:102ED00000000000554E53544B4552522000000054
:102EE00053544B45525220005343422D3E424641DB
:102EF000523A253038580A000A00000070B50446DE
:102F00000D4600F0FDFC002070BD70B504460D4676
:102F100000F05FFD002070BD0246002070470000F9
:102F20001CB5052019214FF400730022CDE90010D3
:102F3000054906A004F088FC044614B1204604F0BC
:102F400049FF00201CBD00003991000874687265BB
:102F50006164310010B51448006890F82100C0F396
:102F6000400020B9002011490870084610BD1048E3
:102F7000006838B180220E4801680C48FDF766FBF6
:102F80000A48F3E700F00CFF20B10AA10748FDF75B
:102F900003FA03E009A10548FDF7FEF909A103487A
:102FA000FDF788FA0148E1E75C020020AC17002039
:102FB000600200206D7368200000000066696E7377
:102FC000682000003E00000008B50E48006820B9E7
:102FD0009F220D490DA001F003F905E04FF0FF31EC
:102FE0000848006803F032FE0649096801236A4672
:102FF000D1F80802991E01F001FE0128EED19DF8DA
:10300000000008BD5C020020C2A100087368656C66
:103010006C20213D2052545F4E554C4C0000000066
:1030200070B504460D460748006820B9AA22064933
:1030300006A001F0D5F80348006803F0BFFD0020AA
:1030400070BD00005C020020D0A100087368656CB0
:103050006C20213D2052545F4E554C4C0000000026
:1030600070B5054600242548006820B9BD222449D2
:1030700024A001F0B5F8284601F0B8FC044624B9B4
:10308000294625A002F0F6FB70BD1C480068D0F868
:103090000802A04200D1F7E740F24311204601F0B8
:1030A000E3FC48BB15480068D0F8080260B113493A
:1030B0000968D1F8080201F043FC10490968D1F809
:1030C0000802002101F00EFE50210C48006800F5B6
:1030D000DB70FDF772FA00200849096881F80602E2
:1030E0000649096881F8070204480068C0F80842E8
:1030F0001149204601F0F6FD00BFC5E75C02002043
:10310000DDA100087368656C6C20213D2052545F7E
:103110004E554C4C0000000066696E73683A20639F
:10312000616E206E6F742066696E642064657669D6
:1031300063653A2025730A002130000810B5044663
:103140000948006820B99422084909A001F048F80C
:103150000548006890F8210064F3410002490968BD
:1031600081F8210010BD00005C020020ACA1000825
:103170007368656C6C20213D2052545F4E554C4C59
:1031800000000000024A1060024A1160704700000F
:1031900064020020680200207CB500251749184809
:1031A000FFF7F0FF4FF40371012001F053F81549C8
:1031B00008600846006820B913A002F05BFB681E97
:1031C0007CBD0A2014214FF480530022CDE9001069
:1031D000134914A004F038FB044600231A4613A137
:1031E0000848006803F0C6FC0120FFF7A7FF1CB1E8
:1031F00015B9204604F0EEFD0020E1E748AC0008D8
:1032000098AA00085C0200206E6F206D656D6F72D9
:103210007920666F72207368656C6C0A000000008C
:1032200035320008747368656C6C000073687278DE
:1032300000000000FE48006890F8210020F0010026
:10324000401CFB49096881F82100F9480068D0F862
:10325000080238B901F052F9054615B12846FFF7C2
:10326000FFFE00BFFFF776FE054602F003FB5CE2BF
:10327000FFF7AAFE04461B2C05D10120EC49096882
:1032800081F8200051E2EA48006890F82000012807
:103290000DD15B2C05D10220E549096881F8200099
:1032A00043E20020E249096881F82000BEE0E048DE
:1032B000006890F820000228F8D10020DC49096855
:1032C00081F82000412C36D1D9480068408C002874
:1032D00007DDD7480068408C401ED54909684884FE
:1032E00004E00020D249096848841EE2D048006802
:1032F000408C00EB8002CE480068263000EB0211C3
:103300005022CB48006800F5DB70FDF7DFF8C848B5
:10331000006800F5DB70FDF763F8C0B2C4490968C6
:1033200081F80602C249096881F80702C0480068AE
:1033300005F008FBF9E1422C42D1BD480068418C00
:10334000BB480068808C401E814207DAB84800689C
:10335000408C401CB649096848840CE0B4480068B9
:10336000808C38B1B2480068808C401EB049096832
:10337000488400E0D9E1AE480068408C00EB800250
:10338000AB480068263000EB02115022A8480068C4
:1033900000F5DB70FDF79AF8A548006800F5DB70D2
:1033A000FDF71EF8C0B2A249096881F80602A049DB
:1033B000096881F807029E48006805F0C3FAB4E185
:1033C000442C11D19A48006890F8070258B199A08E
:1033D00002F050FA9648006890F80702401E94499F
:1033E000096881F80702A0E1432C1FD190480068CA
:1033F00090F807028E49096891F80612884214DA9B
:103400008B48006890F807228948006800F5DB7057
:10341000815C89A002F02EFA8548006890F80702C6
:10342000401C8349096881F807027EE10CB1FF2C3A
:1034300000D17AE1092C21D1002503E07DA002F022
:1034400019FA6D1C7A48006890F80702A842F5DC6A
:103450007748006800F5DB7005F058FA744800689A
:1034600000F5DB70FCF7BCFFC0B27149096881F858
:1034700006026F49096881F8070256E17F2C01D0E6
:10348000082C74D16A48006890F8070200B94CE132
:103490006748006890F80602401E6549096881F88F
:1034A00006026348006890F80702401E60490968F8
:1034B00081F807025E48006890F806025C490968D6
:1034C00091F80712884243DD594B1B6893F8063286
:1034D000574E366896F807629A1B554B1B6893F84F
:1034E00007325B1C524E366806F5DB769919504B55
:1034F0001B6893F807624E4B1B6803F5DB73F018EB
:1035000002F0FEFB00224A48006890F80612484884
:10351000006800F5DB7042544548006890F80722C7
:103520004348006800F5DB70111844A002F0A2F9CE
:103530003F48006890F8075203E03EA002F09AF975
:103540006D1C3B48006890F80602A842F5DA0CE0D2
:103550003CA002F08FF900223548006890F806126E
:103560003348006800F5DB704254DEE0FFE70D2CC5
:1035700001D00A2C31D12E48006805F0FBF900F08B
:103580000FFC012813D12A48006890F8210000F0B0
:10359000010010B12CA002F06DF92548006890F8E8
:1035A00006122348006800F5DB7000F055FBFFF7BA
:1035B000D1FC054602F05EF950211D48006800F577
:1035C000DB70FCF7FAFF00201949096881F8060250
:1035D0001749096881F80702A7E01548006890F8C4
:1035E0000602502804DB00201149096881F8060210
:1035F0000F48006890F807020D49096891F8061213
:1036000088425ADA0A4B1B6893F80632084E36682D
:1036100096F807629A1B064B1B6893F80762044BE7
:103620001B6803F5DB73F118014B1B680EE000000B
:103630005C020020080000002563000008257320BC
:1036400020080000082008000A00000093F8073254
:103650005B1C364E366806F5DB76981902F050FB97
:103660003248006890F807123048006800F5DB70B7
:1036700044542E48006890F8210000F0010058B131
:103680002A48006890F807222848006800F5DB7097
:10369000111827A002F0EEF82448006890F80752AD
:1036A00004E0AFF2700002F0E5F86D1C1F480068FE
:1036B00090F80602A842F4DC14E01C48006890F878
:1036C00006121A48006800F5DB7044541748006879
:1036D00090F8210000F0010020B12146AFF2A800CF
:1036E00002F0C8F800241148006890F80602401C57
:1036F0000E49096881F806020C48006890F8070234
:10370000401C0A49096881F807020848006890F8D7
:103710000602502808DB00200449096881F80602E7
:103720000249096881F8070200BFA1E55C02002098
:10373000257300000146312907D2054A02EB01102A
:103740000268521C12B9002000E0002070470000FF
:10375000D094000810B51448006800F0020010B1C1
:1037600012A002F087F81048006800F0804088B18D
:103770000D48C01E007808B1FFF742FB0A48001F41
:10378000007808B100F040F90748801E008808B1B1
:1037900005F0E2FD0448006800F0004010B109A007
:1037A00002F068F810BD00002CED00E06661696C65
:1037B000656420766563746F722066657463680A59
:1037C000000000006465627567206576656E740AA6
:1037D0000000000010B502A002F04CF8002010BD5F
:1037E00048656C6C6F2052542D5468726561642179
:1037F0000A00000010B50021032003F075F8002432
:1038000018E00121032003F0B5F821460BA002F0D7
:1038100031F84FF4FA7004F041FA0021032003F06C
:10382000A9F80CA002F026F84FF4FA7004F036FA6A
:10383000601CC4B20A2CE4DB002010BD6C6564205F
:103840006F6E2C20636F756E74203A2025640D0A0C
:10385000000000006C6564206F66660D0A000000C1
:1038600010B50DA002F006F8104804680DE0022221
:103870000FA12068FCF7D3FD00B905E00DA0D4E945
:10388000001201F0F7FF00BF0C340E4800688442BC
:10389000EDD3002010BD00002D2D46756E637469B8
:1038A0006F6E204C6973743A0A00000064020020B5
:1038B0005F5F0000252D313673202D2D2025730AE2
:1038C000000000006802002010B5082002F082FF0E
:1038D0000446201DFEF72CF910BD10B5032002F0A0
:1038E00079FF0446201DFEF791F910BD10B50420A4
:1038F00002F070FF0446201DFEF706FA10BD00001E
:1039000010B50848016808A001F0B4FF0B48016831
:103910000BA001F0AFFF0F4801680FA001F0AAFF54
:1039200010BD000048010020746F74616C206D654B
:103930006D6F72793A2025640A0000004C01002066
:1039400075736564206D656D6F7279203A2025640A
:103950000A000000500100206D6178696D756D20CE
:10396000616C6C6F6361746564206D656D6F7279F5
:103970003A2025640A00000010B5062002F02AFF54
:103980000446201DFEF74AFA10BD10B5072002F0CC
:1039900021FF0446201DFEF7ABFA10BD10B505202F
:1039A00002F018FF0446201DFEF72EFB10BD10B5D7
:1039B000022002F00FFF0446201DFEF7A3FB10BDFE
:1039C00010B5012002F006FF0446201DFEF7FCFBA7
:1039D00010BD10B5002002F0FDFE0446201DFEF7CC
:1039E0006BFC10BD10B5092002F0F4FE0446201D4A
:1039F000FEF71CFD10BD0020704710B5044600F016
:103A00006FFDFFF7F8FF10BD10B51CA001F032FFED
:103A10001F4801781FA001F02DFF1D48007800F01D
:103A2000010010B121A001F025FF1948007800F035
:103A3000020010B120A001F01DFF1548007800F031
:103A4000080010B11FA001F015FF1148007800F028
:103A5000100010B11EA001F00DFF0D48007800F01D
:103A6000800030B10A480C3001681CA001F002FF50
:103A700002E01EA001F0FEFE10BD00006D656D208D
:103A80006D616E616765206661756C743A0A00004D
:103A900028ED00E05343425F434653525F4D465387
:103AA000523A3078253032582000000049414343D3
:103AB00056494F4C200000004441434356494F4C67
:103AC000200000004D554E53544B455252200000EB
:103AD0004D53544B45525220000000005343422D99
:103AE0003E4D4D41523A253038580A000A00000038
:103AF0001FB500204FF4006101231B4ACDE90010DF
:103B00001AA11B4802F0E4FA044634B119A001F0EE
:103B1000B1FE4FF0FF3004B010BD052019214FF465
:103B200080621B4BCDE90032CDE902100023194A17
:103B300019A11B4803F0F2FF194804F04BF90520C6
:103B400019214FF48062174BCDE90032CDE9021004
:103B50000023154A15A1174803F0E0FF154804F0AB
:103B600039F90020D7E70000A80200206D71740029
:103B700074020020696E6974206D657373616765F6
:103B8000207175657565206661696C65642E0A0033
:103B9000A80A00205D9000087468726561643100B5
:103BA000A80E00203C0F0020059200087468726582
:103BB000616432003C1300202DE9F0478146002665
:103BC000002799F8000028B90021084600F0A8F85D
:103BD000BDE8F0871B48046827E006221AA1206888
:103BE000FCF71DFC00B11FE0206800F10608484604
:103BF000FCF7F6FB8246524641464846FCF70FFC6E
:103C000088B926B947463846FCF7EAFB06464146DE
:103C1000384605F013FA0546B54200DA2E4641460D
:103C20000BA001F027FE00BF0C340A480068844254
:103C3000D3D327B132463946484603F0A4FC00BF2F
:103C4000C6E70000640200205F5F636D645F0000F0
:103C500025730A006802002038B504460D4601E0CD
:103C6000641C6D1E20782028FAD020780928F7D00F
:103C70000DB9002038BD6A4629462046FEF760FC93
:103C800008B90098F6E7204600E0401C017820299A
:103C900002D001780029F8D100210170214603A04B
:103CA00001F0E8FD4FF0FF30E4E7000025733A2013
:103CB000636F6D6D616E64206E6F7420666F756EDC
:103CC000642E0A002DE9F04106460D4600271048F3
:103CD000046815E006220FA12068FCF7A0FB00B1E4
:103CE0000DE02168881D2A463146FCF798FB28B96B
:103CF000A81D2168085C08B9A76805E000BF0C345E
:103D0000064800688442E5D300BF3846BDE8F0812C
:103D1000640200205F5F636D645F00006802002042
:103D200070B505460E460FA001F0A4FD14480468C6
:103D30000EE0062213A12068FCF771FB00B106E03B
:103D4000D4E90002811D11A001F094FD00BF0C34E4
:103D5000114800688442ECD310A001F08BFD0020D4
:103D600070BD000052542D54687265616420736800
:103D7000656C6C20636F6D6D616E64733A0A000050
:103D8000640200205F5F636D645F0000252D3136A3
:103D900073202D2025730A00680200200A0000000D
:103DA000012070472DE9F04782460E469046544662
:103DB0000025002755E003E000202070641C6D1CE6
:103DC0002078202802D02078092801D1B542F3D3E9
:103DD000082F12D326A001F04DFD4FF0000906E098
:103DE00058F829102AA001F045FD09F10109B9454B
:103DF000F6D326A001F03EFD35E0B54200D332E017
:103E0000207822281CD1641C6D1C48F827407F1C98
:103E100009E020785C2804D16078222801D1641C54
:103E20006D1C641C6D1C2078222801D0B542F0D393
:103E3000B54200D317E000202070641C6D1C10E018
:103E400048F827407F1C01E0641C6D1C2078202866
:103E500004D02078092801D0B542F5D3B54200D36B
:103E600001E0B542A7D300BF3846BDE8F0870000A7
:103E7000546F6F206D616E7920617267732021200D
:103E80005765206F6E6C79205573653A0A00000003
:103E9000257320002DE9F04780460E464FF00009BB
:103EA000404603F053FB044601F064F8376809E02C
:103EB000A7F10C09484603F049FB0546A54200DD81
:103EC0002C463F68B742F3D101F064F8082C00DCBF
:103ED00004B908242046BDE8F087000010B5044668
:103EE00002E004A001F0C6FC201EA4F10104F8D1F8
:103EF00010BD00002D00000070B504462648006883
:103F0000844204D2A222254925A000F069F92C4858
:103F10000068844204D3A32220492AA000F060F95B
:103F2000608820B1A4221D4931A000F059F91A4936
:103F3000606809684518AC4215D0688898B920486F
:103F4000006885420FD02E480068A84201D12C4855
:103F500004606868606010480068201A0E4A69684A
:103F60001268114488600C49A06809684618A64286
:103F700011D0708878B922480068A04201D1204849
:103F800006606068706004480068301A024A616820
:103F900012681144886070BD3C0100205C9C0008E0
:103FA0002872745F75696E74385F74202A296D6594
:103FB0006D203E3D20686561705F70747200000086
:103FC000400100202872745F75696E74385F742038
:103FD0002A296D656D203C202872745F75696E74A6
:103FE000385F74202A29686561705F656E6400001F
:103FF0006D656D2D3E75736564203D3D203000007C
:10400000440100202DE9F04F85B00D469C46DDE9C6
:104010000F740E9B04F04008B8F1000F02D0DFF8D7
:10402000688101E0DFF86481CDF8008004F01008B9
:10403000B8F1000F01D024F0010404F00108B8F138
:10404000000F02D04FF0300801E04FF02008C246C8
:10405000002604F00208B8F1000F11D0002A02DA9D
:104060002D2652420CE004F00408B8F1000F01D0F4
:104070002B2605E004F00808B8F1000F00D0202638
:10408000002142B94FF0300B8846491C0DF104095C
:1040900009F808B01DE01AE0E146B9F10A0F08D1AD
:1040A0004FF00A0BB2FBFBFE0BFB1E28B2FBFBF230
:1040B00002E002F00F08120900BFDDF8009019F8C5
:1040C00008B08846491C0DF1040909F808B0002A17
:1040D000E2D1B94200DD0F46DB1B04F01108B8F154
:1040E000000F10D116B1002B00DD5B1E06E0A842C8
:1040F00003D84FF0200880F80080401CB3F100087E
:10410000A3F10103F3DC26B1A84201D806705B1EBF
:10411000401C04F01008B8F1000F0AD104E0A842D6
:1041200001D880F800A0401CB3F10008A3F10103FE
:10413000F5DC06E0A84203D84FF0300880F8008094
:10414000401CB8467F1E8845F4DC08E0A84205D82C
:104150000DF1040818F8018080F80080401CB1F1CE
:104160000008A1F10101F1DC06E0A84203D84FF0FC
:10417000200880F80080401CB3F10008A3F101037F
:10418000F3DC05B0BDE8F08F4B9C00083A9C0008BA
:104190001CB514200A214FF400630022CDE9001061
:1041A000074908A003F050FB044624B9D42207496C
:1041B00007A000F015F8204603F00CFE1CBD00001F
:1041C000FB3900086D61696E00000000509800081E
:1041D00074696420213D2052545F4E554C4C0000C0
:1041E000F8B504460D461646002000900A480068BF
:1041F00058B933462A46214608A001F03BFB00BFD0
:104200009DF800000028FBD005E0324629462046F4
:10421000014B1B689847F8BD300100202825732901
:1042200020617373657274696F6E206661696C6575
:10423000642061742066756E6374696F6E3A2573CD
:104240002C206C696E65206E756D6265723A25640E
:10425000200A00002DE9F04104460D4600BFFBF79F
:10426000F5FF074601F080FA48B10E490EA001F0B3
:1042700001FB40F212220B4915A0FFF7B1FF3846AF
:10428000FBF7E8FF00BF04FB05F001F09DFB0646CD
:104290002EB104FB05F20021304601F052FD3046FC
:1042A000BDE8F081909C000846756E6374696F6E7E
:1042B0005B25735D207368616C6C206E6F74206287
:1042C00065207573656420696E204953520A0000A9
:1042D0003000000070B5044624B97222104911A0C4
:1042E000FFF77EFF2068012800D170BDFBF7AEFF0D
:1042F000064601202060201D01F032FB58B960689D
:10430000A0F11405284603F0D3FC3046FBF7A2FFCA
:1043100002F054FB02E03046FBF79CFF00BFE4E7ED
:10432000319F0008636F6D706C6574696F6E20213A
:104330003D2052545F4E554C4C00000070B5044671
:1043400024B92322084909A0FFF74AFFFBF77EFFA3
:10435000054600202060201D4060006000BF284608
:10436000FBF778FF70BD00000B9F0008636F6D7056
:104370006C6574696F6E20213D2052545F4E554C20
:104380004C0000002DE9F341054625B932222F49A2
:104390002FA0FFF725FF002603F0D6FC0446FBF70D
:1043A00055FF07462868012846D0281D01F0D8FA95
:1043B00020B93B2225492CA0FFF712FF019810B924
:1043C0006FF001063BE000202063204603F062FD11
:1043D000281D04F114014268116042684A6041607E
:1043E000086000BF00BFFBF731FF804601F0BCF959
:1043F00040B1164928A001F03DFA4E22134930A0E1
:10440000FFF7EEFE4046FBF725FF00BF01980028AE
:1044100009DD01AA002104F1600003F093FE04F11C
:10442000600003F07FFF3846FBF714FF02F0C6FA86
:10443000266BFBF70BFF07460020286000BF3846BD
:10444000FBF708FF3046BDE8FC8100001E9F000816
:10445000636F6D706C6574696F6E20213D205254DE
:104460005F4E554C4C00000072745F6C6973745F52
:104470006973656D707479282628636F6D706C653B
:1044800074696F6E2D3E73757370656E6465645FDD
:104490006C6973742929000046756E6374696F6EC8
:1044A0005B25735D207368616C6C206E6F74206295
:1044B00065207573656420696E204953520A0000B7
:1044C0003000000010B5044C02E020688047241D35
:1044D00002488442F9D310BD80AA00088CAA0008C3
:1044E00010B5044C02E020688047241D0248844235
:1044F000F9D310BD8CAA000894AA000801480068EE
:10450000704700002C01002070B505460A48066877
:10451000284600F06BFA044664B10748006818B1F9
:104520000548006800F00CFA4321204600F09CFA90
:1045300001480460304670BD2C0100202DE9F04197
:1045400004460D4616461F4624B92A220E490FA0DE
:10455000FFF746FE2762258066800020208160816B
:1045600004F1100001F0C6F904F1180001F0C2F9DD
:10457000E80001F029FAE060E06818B96FF0040083
:10458000BDE8F0810020FBE7449F00087175657568
:104590006520213D2052545F4E554C4C00000000D8
:1045A0002DE9F04104460D4616462CB94FF48372AE
:1045B000154916A0FFF714FEFBF748FE07462089B1
:1045C0006189884206D13846FBF744FE6FF003004C
:1045D000BDE8F0812089218890FBF1F201FB1200F7
:1045E000E16851F8300028602089218890FBF1F2C1
:1045F00001FB1200E16801EBC00040683060384602
:10460000FBF728FE0020E3E77C9F000871756575C5
:104610006520213D2052545F4E554C4C0000000057
:104620002DE9FF4704460F46904624B9A32252497C
:1046300052A0FFF7D5FD27B9A4224F4954A0FFF798
:10464000CFFDB8F1000F04D1A5224B4955A0FFF7CB
:10465000C7FD002603F078FB0546FBF7F7FD814612
:104660003BE0039810B96FF0010678E000BFFBF75C
:10467000EDFD824601F078F840B13F494DA001F0D0
:10468000F9F8B5223C4955A0FFF7AAFD5046FBF7C3
:10469000E1FD00BF00202863284603F0FBFB05F185
:1046A000140104F1180001F044F90398002809DD11
:1046B00003AA002105F1600003F044FD05F160004C
:1046C00003F030FE4846FBF7C5FD02F077F92E6B8C
:1046D000FBF7BCFD814606B141E020896189884233
:1046E000BFD02089218890FBF1F201FB1200E16824
:1046F00051F8300038602089218890FBF1F201FBED
:104700001200E16801EBC0004068C8F80000208991
:10471000401C208160892189401A618888421DDC03
:1047200004F1100001F024F958B92069A0F1140532
:10473000284603F0BDFA4846FBF78CFD02F03EF92F
:1047400002E04846FBF786FD206A18B103212046A7
:10475000226A9047304604B0BDE8F08700BF484663
:10476000FBF778FD2EB9206A18B101212046226A94
:1047700090473046EFE700006A9F00087175657545
:104780006520213D2052545F4E554C4C00000000E6
:10479000646174615F70747220213D2052545F4ED9
:1047A000554C4C0073697A6520213D2052545F4E70
:1047B000554C4C0046756E6374696F6E5B25735D76
:1047C000207368616C6C206E6F7420626520757355
:1047D000656420696E204953520A000030000000D1
:1047E0002DE9FF4704460F46904624B94A22434923
:1047F00043A0FFF7F5FC002603F0A6FA0546FBF7F9
:1048000025FD81463BE0039810B96FF0010668E092
:1048100000BFFBF71BFD824600F0A6FF40B1374901
:104820003CA001F027F85B22344944A0FFF7D8FCF4
:104830005046FBF70FFD00BF00202863284603F019
:1048400029FB05F1140104F1100001F072F803983E
:10485000002809DD03AA002105F1600003F072FCC5
:1048600005F1600003F05EFD4846FBF7F3FC02F043
:10487000A5F82E6BFBF7EAFC814606B131E06089B2
:104880002189401A21888842BDD06089218890FB07
:10489000F1F201FB1200E16841F830706089218873
:1048A00090FBF1F201FB1200E16801EBC000C0F8DF
:1048B00004806089401C608104F1180001F058F800
:1048C00070B9A069A0F11405284603F0F1F9484633
:1048D000FBF7C0FC02F072F8304604B0BDE8F08788
:1048E00000BF4846FBF7B6FC2EB9206A18B102217A
:1048F0002046226A90473046EFE70000579F0008A5
:10490000717565756520213D2052545F4E554C4CA4
:104910000000000046756E6374696F6E5B25735D01
:10492000207368616C6C206E6F74206265207573F3
:10493000656420696E204953520A0000300000006F
:1049400070B5044600252CB940F24312134914A057
:10495000FFF746FC204601F051FF082805D04FF430
:10496000A2720E4912A0FFF73BFCA07E10B94FF0D7
:10497000FF3070BDA07E401EA076A07E08B1002052
:10498000F7E7E06A18B12046E16A884705460DB1AD
:10499000A81D08B9002020832846EAE7B898000837
:1049A00064657620213D2052545F4E554C4C0000EA
:1049B00072745F6F626A6563745F6765745F747950
:1049C000706528266465762D3E706172656E742967
:1049D000203D3D2052545F4F626A6563745F436CB3
:1049E0006173735F44657669636500002DE9F0418A
:1049F000064603F0A9F908B100F0BCFA082001F05E
:104A0000E9FE044624B98A22104911A0FFF7E8FB09
:104A1000656810E0A5F10C0708223146384602F01F
:104A20009EFD38B903F090F908B100F0B3FA3846AA
:104A3000BDE8F0812D68201D8542EBD103F084F99B
:104A400008B100F0A7FA0020F2E70000799800080A
:104A5000696E666F726D6174696F6E20213D2052C0
:104A6000545F4E554C4C000070B504460E46002570
:104A70002CB94FF48172284928A0FFF7B1FB2046DA
:104A800001F0BCFE082805D040F20312224927A0FD
:104A9000FFF7A6FBA07D00F0100088B9606A58B14E
:104AA0002046616A8847054635B12A4621462EA030
:104AB00000F0E0FE284670BDE08A40F01000E08281
:104AC000A07D00F0080030B1207E00F0080010B199
:104AD0006FF00600EFE7A06A28B131462046A26ACF
:104AE0009047054603E040F60F70304020830DB13B
:104AF000A81D70B9208B40F008002083A07E401CC8
:104B0000A076A07E28B940F23112034924A0FFF715
:104B100067FB2846CFE70000A99800086465762067
:104B2000213D2052545F4E554C4C000072745F6F13
:104B3000626A6563745F6765745F7479706528265F
:104B40006465762D3E706172656E7429203D3D204E
:104B500052545F4F626A6563745F436C6173735F45
:104B60004465766963650000546F20696E697469F5
:104B7000616C697A65206465766963653A2573209E
:104B80006661696C65642E20546865206572726F79
:104B90007220636F64652069732025640A00000039
:104BA0006465762D3E7265665F636F756E74202155
:104BB0003D20300070B504460E46154612200B49C4
:104BC00008750020C861086248628862C8620848A7
:104BD0000863084848630848886308460664C56354
:104BE0000322214600F064F8002070BD6817002001
:104BF0002126000875260008D92500082DE9F04176
:104C000004460D4616461F462CB940F26D12144953
:104C100014A0FFF7E5FA204601F0F0FD082805D0C2
:104C20004FF4B7720E4913A0FFF7DAFAA07E30B93D
:104C30004FF0FF3002F0CEFB0020BDE8F081206B8A
:104C400038B13B46324629462046D4F830C0E047CA
:104C5000F3E76FF0050002F0BDFB0020EDE7000078
:104C6000C898000864657620213D2052545F4E5557
:104C70004C4C000072745F6F626A6563745F6765B5
:104C8000745F7479706528266465762D3E70617254
:104C9000656E7429203D3D2052545F4F626A656302
:104CA000745F436C6173735F44657669636500008C
:104CB00070B504460D46164614B94FF0FF3070BD6E
:104CC0002846FFF793FE10B14FF0FF30F7E72A4672
:104CD0000821204601F0ACFDE6820020A07620836A
:104CE00000BFECE770B504460D462CB940F2CF1278
:104CF000084909A0FFF774FA204601F07FFD082853
:104D000005D04FF4E872034907A0FFF769FAE5619F
:104D1000002070BDF998000864657620213D20527E
:104D2000545F4E554C4C000072745F6F626A65634D
:104D3000745F6765745F7479706528266465762D85
:104D40003E706172656E7429203D3D2052545F4F64
:104D5000626A6563745F436C6173735F446576690F
:104D6000636500002DE9F04104460D4616461F46D6
:104D70002CB94FF4CA72144914A0FFF731FA204637
:104D800001F03CFD082805D040F295120E4913A011
:104D9000FFF726FAA07E30B94FF0FF3002F01AFB81
:104DA0000020BDE8F081606B38B13B4632462946B1
:104DB0002046D4F834C0E047F3E76FF0050002F076
:104DC00009FB0020EDE70000D79800086465762015
:104DD000213D2052545F4E554C4C000072745F6F61
:104DE000626A6563745F6765745F747970652826AD
:104DF0006465762D3E706172656E7429203D3D209C
:104E000052545F4F626A6563745F436C6173735F92
:104E1000446576696365000010B504462046FDF7D9
:104E200055FE10BD70B506460D46F46C2CB94FF416
:104E3000C372134913A0FFF7D3F93046FFF7ECFF15
:104E4000A84205D240F287120D4913A0FFF7C8F916
:104E5000A06810B10DB10020A060E0882844E08077
:104E6000E188B06CC0F38F20814208DBE188B06C30
:104E7000C0F38F2091FBF0F200FB1210E08070BDB8
:104E8000EA9F000872785F6669666F20213D2052B4
:104E9000545F4E554C4C00006C656E203C3D2072BA
:104EA000745F646D615F63616C635F726563766597
:104EB000645F6C656E2873657269616C290000001F
:104EC00070B505460E46EC6C2CB94FF4CE722349F2
:104ED00023A0FFF785F9E088A188884218DCA08824
:104EE0003044A080A188A86CC0F38F20814227DBCA
:104EF000A188A86CC0F38F2091FBF0F200FB121088
:104F0000A080A088E18888421ADB0120A06017E019
:104F1000A0883044A080A088E188884210DBA18866
:104F2000A86CC0F38F20814208DBA188A86CC0F375
:104F30008F2091FBF0F200FB1210A0800120A060F6
:104F4000A068012801D1A088E080E188A86CC0F3A6
:104F50008F20814201DB0020E08070BD07A00008A7
:104F600072785F6669666F20213D2052545F4E550E
:104F70004C4C000010B5FBF769F904460448008862
:104F8000401C00B2024908802046FBF763F910BDBF
:104F90001002002010B5FBF759F904460B480088B1
:104FA000401E00B2094908800846B0F900000028F8
:104FB00007DC002008802046FBF74CF901F0FEFCDE
:104FC00002E02046FBF746F910BD00001002002069
:104FD00070B5054600BFFBF739F9064600F0C4FB83
:104FE00048B1414941A000F045FC40F229223E4928
:104FF00048A0FFF7F5F83046FBF72CF900BF05B9DC
:1050000070BD05F0030028B140F22D22364942A0C0
:10501000FFF7E6F84D480068854203D34C48006826
:10502000854205D340F22E222F494A48FFF7D8F88F
:1050300000BF4948006818B12846474909688847B1
:1050400000BF42480068854203D34148006885425A
:1050500002D300BF00BFD3E7A5F10C0400BF00BF1F
:105060004FF0FF313D4801F0F1FD608818B1208814
:10507000B0F5F55F08D03AA000F0FCFB2388628809
:1050800021463EA000F0F6FB608828B940F24D2290
:10509000154946A0FFF7A4F82088B0F5F55F05D0C4
:1050A00040F24E22104944A0FFF79AF80020608099
:1050B0004FF4F550208047480068844201D24548AB
:1050C0000460224960680968611A401A4249096807
:1050D000081A414908602046FEF70EFF1F4801F0FC
:1050E0006DFD00BF8CE700009A9C000846756E635A
:1050F00074696F6E5B25735D207368616C6C206EE4
:105100006F74206265207573656420696E20495351
:10511000520A00003000000028282872745F756968
:105120006E7433325F7429726D656D2920262028D4
:1051300052545F414C49474E5F53495A45202D20F8
:10514000312929203D3D2030000000003C01002095
:1051500040010020FCA20008380100204816002071
:10516000746F2066726565206120626164206461ED
:10517000746120626C6F636B3A0A00006D656D3A72
:10518000203078253038782C207573656420666C63
:1051900061673A2025642C206D6167696320636F25
:1051A00064653A203078253034780A006D656D2DBD
:1051B0003E757365640000006D656D2D3E6D616721
:1051C0006963203D3D20484541505F4D414749437B
:1051D00000000000440100204C01002010B5FBF746
:1051E0002BFDFCF709FB0549054802F0E7F9FFF73D
:1051F00069F904A0FFF788F910BD000000500020F5
:10520000901E00207561727431000000704700002C
:1052100070B505462C1D3048006838B128462E4927
:1052200009688847064606B970BD00BF2BA0E16B30
:1052300000F020FB2DA0216A00F01CFB2FA0616A6A
:1052400000F018FB31A0A16A00F014FB33A0E16A62
:1052500000F010FB35A0216800F00CFB37A061685E
:1052600000F008FB39A0A16800F004FB3BA0E16856
:1052700000F000FB3DA0216900F0FCFA3FA061694D
:1052800000F0F8FA41A0A16900F0F4FA43A0E16946
:1052900000F0F0FA45A0216B00F0ECFA47A0616B3A
:1052A00000F0E8FA49A0A16B00F0E4FA287800F0D9
:1052B000040048B102F048FD0646314647A000F020
:1052C000D9FAFEF786FB02E04CA000F0D3FAFEF715
:1052D00041FA00BFFEE70000580200207073723AE6
:1052E000203078253038780A000000007230303ADB
:1052F000203078253038780A000000007230313ACA
:10530000203078253038780A000000007230323AB8
:10531000203078253038780A000000007230333AA7
:10532000203078253038780A000000007230343A96
:10533000203078253038780A000000007230353A85
:10534000203078253038780A000000007230363A74
:10535000203078253038780A000000007230373A63
:10536000203078253038780A000000007230383A52
:10537000203078253038780A000000007230393A41
:10538000203078253038780A000000007231303A39
:10539000203078253038780A000000007231313A28
:1053A000203078253038780A000000007231323A17
:1053B000203078253038780A00000000206C723ADE
:1053C000203078253038780A000000002070633AD9
:1053D000203078253038780A000000006861726457
:1053E000206661756C74206F6E20746872656164EC
:1053F0003A2025730D0A0D0A0000000068617264EE
:10540000206661756C74206F6E2068616E646C65D7
:10541000720D0A0D0A00000010B50022034904A015
:10542000FFF7C8FB0446204610BD00002098000886
:1054300070696E002DE9FE4305460E46F0B2012864
:1054400006D002285FD0032879D004285AD15FE023
:105450004FF0FF37EC6C2CB940F27942574958A015
:10546000FEF7BEFE2CE0286CC16828468847074638
:10547000781C00B925E0FAF7E9FE8146A288216888
:105480008F54A088401CA080A188A86CC0F38F20F6
:10549000814201DB0020A080A088E18888420CD1F5
:1054A000E088401CE0800120A060E188A86CC0F387
:1054B0008F20814201DB0020E0804846FAF7CAFED7
:1054C000D1E700BFE869E8B1FAF7C0FE8146A088DD
:1054D000E188884203DBA088E188401A06E0E08882
:1054E000A188411AA86CC0F38F20401A8046484614
:1054F000FAF7B0FEB8F1000F03D041462846EA693A
:10550000904700BF56E02C6D2046FEF7E3FE51E0C9
:105510002C6D002301AA6946201DFFF781F801AA1E
:1055200002A9201DFFF73CF850B901202060286C2B
:10553000022307692846DDE90121B84702E008E0B7
:1055400000202060286A18B12A6A284600999047EE
:1055500030E03712A86CC0F38F20B0B9EC6C2CB9D6
:1055600040F2D74215491BA0FEF73AFEE86928B978
:1055700040F2D94211491CA0FEF732FE39462846B6
:10558000EA6990470020206013E0FAF75FFE80464A
:1055900039462846FFF794FC2846FFF73DFC0746AE
:1055A0004046FAF757FEE86918B139462846EA69D5
:1055B000904700BF00BFBDE8FE830000A8A0000820
:1055C00072785F6669666F20213D2052545F4E55A8
:1055D0004C4C000072785F646D6120213D20525474
:1055E0005F4E554C4C00000073657269616C2D3E36
:1055F000706172656E742E72785F696E6469636142
:10560000746520213D2052545F4E554C4C000000E3
:105610002DE9F0470446884616461F462CB940F24D
:105620004D420F490FA0FEF7DBFD254600202875EF
:10563000E8612862104868621048A8621048E86271
:1056400010482863104868631048A863EF63B2B23B
:1056500041462846FFF72CFB81464846BDE8F087C7
:1056600092A0000873657269616C20213D2052543C
:105670005F4E554C4C000000197000086170000826
:10568000F16D0008FD72000869730008756F00086D
:10569000F0B504460D461646301D20F00700403890
:1056A0000146002203E00C4F41F82270521C102AE0
:1056B000F9D30D624FF0000CC1F824C0C1F828C026
:1056C000C1F82CC0C1F830C04B638C634FF0807CB4
:1056D000C1F83CC0F0BD0000EFBEADDE1CB50E4908
:1056E00003C9CDE900010D4C4FF4E13000900C48A6
:1056F0000C4908640846DDE90012C0E91112204691
:10570000FCF716F8234640F2031207A10548FFF7FD
:105710007FFF00201CBD0000B4940008040000209E
:1057200060940008D013002075617274310000008D
:1057300010B500BF00BFFAF789FD0446084800789D
:10574000401C0749087000BF0648006810B10548B2
:105750000068804700BF2046FAF77CFD10BD0000BE
:10576000240100201C01002001480078704700003F
:105770002401002010B500BF00BFFAF767FD044602
:1057800008480078401E0749087000BF06480068B6
:1057900010B105480068804700BF2046FAF75AFD5F
:1057A00010BD0000240100202001002070B5044637
:1057B0002068A0F1140500BF00BF284602F078FA67
:1057C000002070BD70B505460EE0FAF73FFD0646B5
:1057D0002868A0F114044FF0FF302063204602F047
:1057E00067FA3046FAF736FD284600F0A9F8002897
:1057F000EBD0002070BD2DE9F04105460C469046E7
:10580000204602F047FBB8F1000F03D0B8F1010FBA
:1058100023D105E004F11401284600F083F81CE0D0
:105820002E680FE0A6F1140794F8350097F83510AC
:10583000884206DA04F1140107F1140000F072F84E
:1058400002E03668AE42EDD100BFAE4204D104F1B1
:105850001401284600F066F800BF00BF0020BDE834
:10586000F08110B5044604F1140000F037F8002070
:1058700010BD00000FB438B505A800907F21154871
:10588000009B049A02F08EFE04467F2C00D97F24F0
:105890001148006818B90F48FFF7B8FC15E00E482A
:1058A0000068058B0C480068008B40F040000A49F6
:1058B000096808832346074A002107480068FFF764
:1058C00051FA05480068058300BF0020009038BCED
:1058D0005DF814FBC81500202C010020406000601A
:1058E00070474060006070474060006070474060F3
:1058F0000060704740600060704702685160026855
:105900000A600160486070470268516002680A607E
:105910000160486070470268516002680A60016077
:10592000486070474268116042684A6041600860A0
:1059300070474268116042684A6041600860704781
:1059400001460868884201D1012070470020FCE729
:1059500001460868884201D1012070470020FCE719
:1059600001460868884201D1012070470020FCE709
:1059700001460868884201D1012070470020FCE7F9
:1059800001460868884201D1012070470020FCE7E9
:10599000014600200A4601E01268401C13688B4251
:1059A000FAD17047D0E900215160D0E900121160AE
:1059B000406000607047D0E900215160D0E90012DA
:1059C00011604060006070472DE9F047054600BF58
:1059D000FAF73CFC8146FFF7C7FE48B17D497EA03F
:1059E000FFF748FF4FF48B727A4985A0FEF7F8FB6A
:1059F0004846FAF72FFC00BF15B90020BDE8F08734
:105A0000E81C20F00300A84201D000BF01E000BF65
:105A100000BFE81C20F003057A480068854203D9DE
:105A200000BF00BF0020E9E70C2D00D20C254FF08D
:105A3000FF31754801F00AF9744800687449096833
:105A4000461ABBE0724800688419608800287BD140
:105A500006F10C006168081AA84275D306F10C0023
:105A60006168091A05F11800814230D306F10C0073
:105A700000EB05086648006800EB08074FF4F55096
:105A800038800020788060687860BE60C4F8048048
:105A9000012060805B48796800680C30814205D045
:105AA0005B49786809680844C0F80880594801686B
:105AB00005F10C0008445749086057480068096818
:105AC000884219D2534800685349086014E0012005
:105AD00060804F4960680968611A401A4D49096839
